:04000000A0EF03F07A
:08000800046ED8CF05F0E0CF33
:1000100006F00001E9CF0CF0EACF07F0E1CF08F0DD
:10002000E2CF09F0D9CF0AF0DACF0BF0F3CF12F01C
:10003000F4CF13F0FACF14F0F5CF15F0F6CF16F099
:10004000F7CF17F000C00EF001C00FF002C010F0A3
:1000500003C011F0A0A230EF00F0A1B2A9EF00F0B0
:100060009DA636EF00F09EB669EF00F00EC000F0DE
:100070000FC001F010C002F011C003F00CC0E9FF86
:1000800007C0EAFF078E08C0E1FF09C0E2FF0AC00F
:10009000D9FF0BC0DAFF12C0F3FF13C0F4FF14C086
:1000A000FAFF15C0F5FF16C0F6FF17C0F7FF0450A2
:1000B00006C0E0FF05C0D8FF1000C950D1C2C9FF7B
:1000C000C6889E96C7B0FED7016AC6B8012AA4EFBB
:1000D00000F0C7BA04D00201AC6BC7B4AC8F020108
:1000E000AC51AC2B1A6E1A507F081EE31A5207E16E
:1000F000C69C9EA6FED7C950C6881C6E14D01A5046
:10010000000811E21A507F080EE3010E1A5C036A20
:10011000180FE96E020E0320EA6EC69C9EA6FED75B
:10012000C950C688EF6E11D01A507F080EE27F0EBC
:100130001A5C240FE96EEA6AD8B0EA2AEFCFD0F24F
:10014000D0C2D1F20001B9D702019E96000136EF6C
:1001500000F019A004D019A202D0212A02D019B0AF
:10016000232A222A2250030802E11974226A240E4B
:10017000B36E460EB26EA19236EF00F094908B9063
:1001800094928B92956A8C6AD2EF03F0D890020118
:10019000C235010F016E00011200020EEA6EC20E9E
:1001A000E96EEF500DE0060E016E006A002EFED7DC
:1001B000012EFBD77B0E006E002EFED7EF2EF3D75D
:1001C0001200010E0201C25DF60F2DE20A0F0001BE
:1001D00015EF01F094908B80020125D094928B82D0
:1001E000020121D095908C8002011DD095928C82C5
:1001F000020119D095948C84020115D095968C86B5
:10020000020111D095988C8802010DD0959A8C8AA4
:10021000020109D0959C8C8C020105D0959E8C8E94
:10022000020101D0020100011200E824F76AF7364A
:10023000450FF66E020EF7220A00F550FA6E08001E
:10024000F550F96ED401DC01E401EC01F401FC018C
:1002500004020C0214021C02800E0201CF6FCE5168
:10026000CF1502E1899601D089869296929489945D
:1002700092948984CF43CF518008F1E19292899280
:1002800000D092928982000112000201C96BCA6BF0
:10029000CB6BCC6BC651010A000104E0030AD8B451
:1002A0005FD0BBD00201C85102080BE2FF0A03E194
:1002B000C751E70806E2E80EC75F030EC85BC92B0B
:1002C000F2D7C85303E1C751630806E2640EC75F63
:1002D000000EC85BCA2BF5D7C85303E1C751090804
:1002E00006E20A0EC75F000EC85BCB2BF5D7C853DA
:1002F00003E1C751000806E2010EC75F000EC85BAC
:10030000CC2BF5D7C95306E17A0ECE6F0001A4DFDE
:1003100007D00201C9517009CD6FCE6F00019CDF7B
:100320000201C95308E1CA5306E16A0ECE6F00010B
:1003300093DF07D00201CA516009CD6FCE6F000173
:100340008BDF0201CB515009CD6FCE6F000184DFEE
:100350000201CC514009CD6FCE6F00017DDF5ED030
:100360000201C85102080BE2FF0A03E1C751E70886
:1003700006E2E80EC75F030EC85BC92BF2D7C8536D
:1003800003E1C751630806E2640EC75F000EC85B55
:10039000CA2BF5D7C85303E1C751090806E20A0E74
:1003A000C75F000EC85BCB2BF5D7C85303E1C7511D
:1003B000000806E2010EC75F000EC85BCC2BF5D724
:1003C000C95306E13A0ECE6F000146DF07D00201A5
:1003D000C9513009CD6FCE6F00013EDF0201C95314
:1003E00008E1CA5306E12A0ECE6F000135DF07D0BF
:1003F0000201CA512009CD6FCE6F00012DDF02012D
:10040000CB511009CD6FCE6F000126DFCCC2CDF2EB
:10041000CCC2CEF2000120DF01D000D012000201D8
:10042000C351000A000103E0010A16E01FD03A0E92
:100430000201CE6F000110DF2A0E0201CE6F000113
:100440000BDF1A0E0201CE6F000106DF0A0E020159
:10045000CE6F000101DF0AD0020E0201C66FC5C2D5
:10046000C8F2C4C2C7F2000110DF00D095EF02F05D
:10047000010E0201C25DF60F2DE20A0F00016CEFC2
:1004800002F094908B90020125D094928B920201FD
:1004900021D095908C9002011DD095928C920201F2
:1004A00019D095948C94020115D095968C960201E2
:1004B00011D095988C9802010DD0959A8C9A0201D2
:1004C00009D0959C8C9C020105D0959E8C9E0201C2
:1004D00001D0020100011200E824F76AF736F30F99
:1004E000F66E040EF7220A00F550FA6E0800F55079
:1004F000F96E82048A0492049A04A204AA04B20443
:10050000BA04C204CA04030E0201C26F000159DE1C
:100510001982000E19B4010E0201C26FC36FC1C26D
:10052000C5F2C0C2C4F200017AD7938281B273D0FF
:1005300020C0C2F232DE216A0201982BD8B4992B76
:100540001D520DE1A451C05D06E1A551C15D03E15D
:10055000000161D00201C02BD8B4C12B16D01D2CD4
:1005600014D0A851C05D06E1A951C15D03E10001AD
:1005700052D00201995303E198511F0802E20A0E7A
:10058000206E0A0EC027000EC123020EC66FC1C224
:10059000C8F2C0C2C7F2000178DED8901D34036AE9
:1005A0009A0FE96E020E0320EA6EC1C2ECFFED5213
:1005B000C0C2EFFFD8901D34036A9A0FE96E020E95
:1005C0000320EA6EEFCF1EF0D8901D34036A9A0F15
:1005D000E96E020E0320EA6EECCFC3F2ED52EFCFCC
:1005E000C2F2C3C21FF01DC0C2F2D0DD240E01242E
:1005F000E96EEA6AD8B0EA2A1EC0EFFF1DC0C2F257
:10060000C5DD010E0124240FE96EEA6AD8B0EA2A9A
:100610001FC0EFFF8AD7938481B474D020C0C2F288
:10062000BCDD216A0201982BD8B4992B1D520EE132
:10063000A651C05D06E1A751C15D03E1000162D092
:100640000201C051D8B4C107C00716D01D2C14D068
:10065000AA51C05D06E1AB51C15D03E1000152D07A
:100660000201995303E198511F0802E20A0E206E1D
:100670000A0EC05F000EC15B020EC66FC1C2C8F297
:10068000C0C2C7F2000101DED8901D34036A9A0F80
:10069000E96E020E0320EA6EC1C2ECFFED52C0C249
:1006A000EFFFD8901D34036A9A0FE96E020E032003
:1006B000EA6EEFCF1EF0D8901D34036A9A0FE96EF0
:1006C000020E0320EA6EECCFC3F2ED52EFCFC2F27E
:1006D000C3C21FF01DC0C2F259DD240E0124E96E11
:1006E000EA6AD8B0EA2A1EC0EFFF1DC0C2F24EDD92
:1006F000010E0124240FE96EEA6AD8B0EA2A1FC06D
:10070000EFFF89D70201996B986B7D0E206E215007
:10071000380801E105D0938081A002D00001F9D60C
:10072000320EC26F000139DD938081A0FDD7216AAE
:100730001992030E0201C26F00019ADECEEF05F09E
:10074000F86AD09E078EEA6AE96A94869488A00EB9
:10075000C86E360EC66E1990199219941A6A1B6AE1
:100760007D0E206E216A226A236A0201996B986BC2
:10077000010EA56F2C0EA46FA76BA66B250EA96F9B
:10078000800EA86FAB6BAA6B030EAC6FC150C00B91
:100790000F09C16E070EB46E929289829294898479
:1007A0000001ECD49D86B50EB16EC00EF2120A0E99
:1007B0000201BB6F140EBC6F1E0EBD6F280EBE6F04
:1007C000320EBF6FB80E186F1A6F220E196F1B6FA3
:1007D000F2CFC0F2F29EA96AA69CA69EA680A8505F
:1007E000C0BFF28E1B6E1B52D8B481D01B6AA96A9F
:1007F0001BC0A8FFA69CA69EA684F250006EF29E87
:100800000F01550EA76EAA0EA76EA682A6B2FED73E
:10081000A6940050F21202019B6B840E9A6F130E85
:100820009D6F880E9C6F090E9F6FC40E9E6F0D0EFC
:10083000A16FAC0EA06F190EA36F640EA26F1D6A9C
:100840001D50040854E3D8901D34036A9A0FE96ED2
:10085000020E0320EA6EEFCF1EF0D8901D34036A1B
:100860009A0FE96E020E0320EA6EECCFC1F2ED5250
:10087000EFCFC0F2C1C21FF01DC0C2F2000186DC82
:1008800001C0C0F2C0C2A9FF1EC0A8FFA69CA69EC0
:10089000A684F250006EF29E0F01550EA76EAA0EAE
:1008A000A76EA682A6B2FED7A6940050F2121DC073
:1008B000C2F200016BDC010E01240201C06FC0C254
:1008C000A9FF1FC0A8FFA69CA69EA684F250006E9A
:1008D000F29E0F01550EA76EAA0EA76EA682A6B2B3
:1008E000FED7A6940050F2121D2A0201A9D71D6A54
:1008F0001D500408D8A092D01DC0C2F2000146DCF1
:10090000240E0124016E036AD8B0032A01500201AB
:10091000C06F03C0C1F21DC0C2F2000137DC01C0CC
:10092000C2F2F2CFC3F2F29EC2C2A9FFA69CA69E5B
:10093000A680A8500201C3BFF28EC26FC1C2EAFFF7
:10094000C0C2E9FFC2C2EFFF1DC0C2F200011EDC3F
:10095000010E0124240F016E036AD8B0032A01504E
:100960000201C06F03C0C1F21DC0C2F200010EDC63
:10097000010E01240201C26FF2CFC3F2F29EC2C285
:10098000A9FFA69CA69EA680A850C3BFF28EC26FE8
:10099000C1C2EAFFC0C2E9FFC2C2EFFF1DC0C2F27E
:1009A0000001C6EC00F001C0C0F2F2CFC1F2F29E2D
:1009B000C0C2A9FFA69CA69EA680A8500201C1BFE6
:1009C000F28EBA6BB96F1DC0C2F20001C6EC00F026
:1009D000010E01240201C06FF2CFC1F2F29EC0C22B
:1009E000A9FFA69CA69EA680A850C1BFF28EB86B98
:1009F000B76FB7C2B8F2B76BD8901D34036A9A0FBD
:100A0000E96E020E0320EA6EB751B911006EB851BB
:100A1000BA1100C0EFFFEC6E1D2A6AD71D6A19C219
:100A2000B2F218C2B1F21BC2B4F21AC2B3F2B2C22D
:100A3000AEF2B1C2ADF2B4C2B0F2B3C2AFF29386BD
:100A400081B6F8D0320EC26F0001CDEC00F0938673
:100A500081A6FDD7040E0201C26F0001E1EC00F097
:100A60001980A192A082240EB36E460EB26E036A64
:100A70001D50BB0FE96E020E0320EA6EEF50036AB1
:100A80000201AD6F03C0AEF2D8901D34036A9A0F15
:100A9000E96E020E0320EA6EECCF03F0ED52EFCFC9
:100AA000AFF203C0B0F2010EC66FAEC2C8F2ADC263
:100AB000C7F2000145EC01F0020E0201C66FB0C2A0
:100AC000C8F2AFC2C7F2000145EC01F0236A93847B
:100AD00081B411D0938481A4FDD7320E0201C26F7C
:100AE0000001CDEC00F0236A1D5203E1040E1D6EDF
:100AF00001D01D06ECD7938281B211D0938281A2DE
:100B0000FDD7320E0201C26F0001CDEC00F0236A66
:100B10001D50040802E11D6A01D01D2AECD7036AAA
:100B20001D50BB0FE96E020E0320EA6EEF50036A00
:100B30000201AD6F03C0AEF2D8901D34036A9A0F64
:100B4000E96E020E0320EA6EECCF03F0ED52EFCF18
:100B5000AFF203C0B0F2010EC66FAEC2C8F2ADC2B2
:100B6000C7F2000145EC01F0020E0201C66FB0C2EF
:100B7000C8F2AFC2C7F2000145EC01F0938681B61E
:100B800048D0938681A6FDD7236AB0C2B6F2AFC221
:100B9000B5F2B6C2C1F2B5C2C0F2B5D41DC0C2F240
:100BA000C6EC00F001C0C0F2C0C2A9FF1EC0A8FF81
:100BB000A69CA69EA684F250006EF29E0F01550ED2
:100BC000A76EAA0EA76EA682A6B2FED7A694005064
:100BD000F2121DC0C2F20001C6EC00F0010E0124A9
:100BE0000201C06FC0C2A9FF1FC0A8FFA69CA69E9D
:100BF000A684F250006EF29E0F01550EA76EAA0E4B
:100C0000A76EA682A6B2FED7A6940050F2120001EB
:100C1000B5D72350380801E103D0938081B057D76E
:100C2000A092236A1990040E0201C26F000120DC19
:100C3000020105D7010EC66FAEC2C8F2ADC2C7F23F
:100C4000000145EC01F0020E0201C66FB0C2C8F20D
:100C5000AFC2C7F2000145EC01F00201E0D6FFD7B8
:020000040030CA
:0E00000000C2191E008700000FC00FE00F4065
:00000001FF
;PIC18F4520
;CRC=1BC5  CREATED="13-Jan-15 09:29"
